:100000000C94BA030C94D7030C94D7030C94D70325
:100010000C94D7030C94D7030C94D7030C94ED0DD8
:100020000C94D7030C94D7030C942E0A0C94D7038A
:100030000C94D7030C94D7030C94D7030C94D703D8
:100040000C94D7030C94D7030C941F040C94450410
:100050000C94D7030C94720E0C94D7030C94D70312
:100060000C94D7030C94D7032907001B5B31393B51
:1000700031480048003B001B5B001B5B4B001B5BD7
:1000800032313B31480007001B5B4B001B5B3139B1
:100090003B3148004442473420004442473320006B
:1000A0004442473220004442473120001B5B313636
:1000B0003B3148005D3A0D0A004465627567417244
:1000C0007261795B302E2E3078001B5B324A001B48
:1000D0005B48003A2000202020003A20003A20000F
:1000E0002D2D2041444E53323631302054657374E7
:1000F0002070726F6772616D202D2D0D0A0D0A4DF3
:1001000041202D2053686F772074686520206D6131
:10011000696E2073637265656E0D0A4445202D205B
:1001200053686F7720746865202064656275672066
:1001300073637265656E0D0A4545202D2044756D0B
:1001400070207468652020454550524F4D206D65E4
:100150006D6F72790D0A4D45202D2044756D70200C
:10016000746865202052414D206D656D6F72790D68
:100170000A4845202D2053686F77207468697320E2
:1001800068656C702070616E656C0D0A3F20202DD3
:100190002053686F7720746869732068656C7020DD
:1001A00070616E656C0D0A0D0A50572020202320C7
:1001B0002053657420706F776572202020202020E6
:1001C0002077697065720D0A4F4E20202020202074
:1001D0005475726E207472616E73647563657220FB
:1001E0006F6E0D0A4F462020202020205475726E1D
:1001F000207472616E736475636572206F66660D3C
:100200000A001B5B324A001B5B48001B5B4A001B59
:100210005B31343B3148001B5B31343B3148001BC0
:100220005B31303B313148001B5B393B3948001BA7
:100230005B383B3948001B5B363B39480054696DDD
:10024000656400436F6E746E001B5B353B3948007C
:100250004D45004346001B5B343B313248001B5B7D
:10026000333B323348001B5B333B3948001B5B3266
:100270003B323348001B5B323B3948004F66660017
:10028000204F6E001B5B313B323548002052756EAB
:100290000053746F70001B5B313B31304800455395
:1002A000746F70203A20202D2D2D2D207C20204F82
:1002B00075743A2020202D2D2D0D0A46726571206F
:1002C000203A202D2D2D2D2D207C20467265713A4F
:1002D000202D2D2D2D2D0D0A5077722020203A2013
:1002E000202D2D2D2D207C20205077723A20202D7E
:1002F0002D2D2D0D0A4374726C20203A20202020D1
:100300002D2D207C0D0A52756E2020203A202D2D97
:100310002D2D2D207C0D0A52756E54696D3A2020CA
:10032000202D2D2D207C0D0A3D3D3D3D3D3D3D3D8B
:100330003D3D3D3D3D3D2B3D3D3D3D3D3D3D3D3DFF
:100340003D3D3D0D0A416D707320203A20202D2D3A
:100350002D2D200D0A50574D2020203A20202D2DE4
:100360002D2D0D0A5057697020203A2020202D2D68
:100370002D0D0A0D0A001B5B324A001B5B48003042
:1003800031323334353637383941424344454610EB
:1003900027E80364000A0030313233343536373809
:1003A0003941424344454600CA9A3B00E1F5058085
:1003B00096980040420F00A086010010270000E838
:1003C000030000640000000A000000606D14006477
:1003D0000000C82C01002C01005361766564206187
:1003E0007320736574757020004C6F6164656420C0
:1003F000736574757020005479706520273F27203D
:10040000666F722068656C700D0A00290D0A005530
:100410006E7265636F676E697A6564206D6F64657F
:1004200020617267756D656E74202800436F6E736E
:1004300074616E74206672657175656E6379206D86
:100440006F646500207469636B732E0052756E20B3
:10045000666F7220005479706520273F2720666FF1
:10046000722068656C700D0A00292C206D757374FC
:1004700020626520706F736974697665206E756D92
:100480006265722E0D0A00426164206F72206F75E2
:1004900074206F662072616E67652072756E2074BD
:1004A000696D6520280052756E20636F6E74696EE9
:1004B000756F75730043757272656E74206D6F642D
:1004C000653A20005479706520273F2720666F72B7
:1004D0002068656C700D0A00292C206D75737420DE
:1004E00062652050206F72206E6F7468696E672E8F
:1004F0000D0A00556E7265636F676E697A656420D8
:10050000696E707574206D6F646520280054797071
:100510006520273F2720666F722068656C700D0A82
:1005200000292C206D75737420626520552C20588D
:10053000432C20504F2C206F722045532E0D0A0063
:10054000556E7265636F676E697A656420696E7057
:100550007574206D6F6465202800202B7072696EA1
:1005600074003A20004D6F6465204900436F6E743B
:10057000726F6C3A200054696D65642000436F6EA1
:1005800074696E756F75730D0A004F7574707574AC
:100590003A20002057617474730D0A00487A2C20A9
:1005A00000467265713A20003A0D0A0020286375F2
:1005B0007272656E74290053657475702000436F04
:1005C0006E7374616E742066726571004D6178207F
:1005D000656666696369656E637900556E757365F6
:1005E0006400537769746368207472616E73647514
:1005F0006365720050757368206F6E2F5075736855
:10060000206F6666207472616E7364756365720034
:100610004553746F7000606D1400640000C82C01B5
:10062000002C01004F46460D0A004F4E0D0A0049AE
:100630006E7075743220004F46460D0A004F4E0D05
:100640000A00496E70757431200054797065202756
:100650003F2720666F722068656C700D0A00292C98
:10066000206D757374206265203020746F20004205
:100670006164206F72206F7574206F662072616EE6
:10068000676520776970657220280054797065204D
:10069000273F2720666F722068656C700D0A002066
:1006A000746F2000292C206D757374206265200002
:1006B000426164206F72206F7574206F66207261D2
:1006C0006E676520706F77657220280054797065B9
:1006D00020273F2720666F722068656C700D0A0026
:1006E00020746F2000292C206D75737420626520A2
:1006F00000426164206F72206F7574206F662072F3
:10070000616E6765206672657175656E6379202814
:1007100000467265713A200052657365743A20454F
:1007200053746F70204F46460052657365743A20CB
:100730004553746F70204F4E005472616E73647530
:10074000636572204F4E0043616E2774206F75748D
:10075000707574207768696C65204553746F70708C
:10076000656407005472616E736475636572204F2F
:100770004646000011241FBECFEFD8E0DEBFCDBF3C
:1007800013E0A0E0B1E0E2E2FCE202C005900D92CD
:10079000A437B107D9F713E0A4E7B3E001C01D9275
:1007A000A139B107E1F70E947A0D0C940F160C9451
:1007B0000000282F8091C1008F7D8093C100E091BF
:1007C000D903EF5F9E2F9F73E1508091DA03981752
:1007D00011F490E007C0F0E0EF56FC4F20879093B3
:1007E000D90391E08091C10080628093C100892F7C
:1007F00008958091C1008F778093C1009091DC03B0
:100800008091DB03891711F4E0E009C0E92FF0E0E3
:10081000EF56FC4FE0819F5F97709093DC038091CF
:10082000C10080688093C1008E2F089520E09091D0
:10083000D9038091DA03981321E0822F08951F9243
:100840000F920FB60F9211242F938F939F93EF93D4
:10085000FF932091C600E091DB03EF5F9E2F97701E
:10086000E1508091DC03981731F0F0E0EF56FC4F37
:1008700020839093DB03FF91EF919F918F912F91B4
:100880000F900FBE0F901F9018951F920F920FB6EA
:100890000F9211248F939F93EF93FF939091DA031C
:1008A0008091D903891761F0E92FF0E0EF56FC4FF2
:1008B00080858093C6009F5F9F739093DA0305C085
:1008C0008091C1008F7D8093C100FF91EF919F9136
:1008D0008F910F900FBE0F901F9018958CE4E1E957
:1008E000F3E0DF011D928A95E9F7E4E6F0E080810C
:1008F0008D7F80831092C50083E38093C400E0EC79
:10090000F0E080818D7F808386E08093C20088E95B
:100910008093C1005098589A08950F931F938C01AB
:100920008BE690E00E941B0CC8010E94290C88E60F
:1009300090E00E941B0C1F910F9108958EE790E0AC
:100940000E941B0C8AE790E00E941B0C80E091E063
:100950000E94290C089585E1EDEDF3E0DF011D9281
:100960008A95E9F71092F2030E949E04089587E7A2
:1009700090E00E941B0C85E190E060E00E947C0BFF
:1009800085E790E00E941B0CADEDB3E0FD01019006
:100990000020E9F7EA1BFB0BCF01059660E00E94FF
:1009A0007C0B83E790E00E941B0C0895DF92EF928E
:1009B000FF920F931F93CF93DF937C01EB0121C034
:1009C000D02E103231F1812F90E00E94C615892B74
:1009D00029F0812F90E00E94CD15182F802F90E0F4
:1009E0000E94C615892B29F0802F90E00E94CD151A
:1009F000D82E1D1511F080E00DC00894E11CF11CEB
:100A00002196F701108108811123D1F680E000239F
:100A100009F481E0DF91CF911F910F91FF90EF904A
:100A2000DF900895CF93DF930E946F090E947409AD
:100A3000EC0166E071E00E94D604882399F480916D
:100A4000B1049091B20481549D4429F4CE010E94D6
:100A5000CA078823F1F5CE0169E071E00E94D6044F
:100A6000882319F081E49DE41AC0CE016BE071E0A7
:100A70000E94D604882339F4CE016EE071E00E9412
:100A8000D604882319F085E498E409C0CE0160E11A
:100A900071E00E94D604882329F085E494E40E9442
:100AA000120B17C08CE890E00E941B0C88E890E0C5
:100AB0000E941B0C83E191E00E94290CCE010E9450
:100AC000290C8AE291E00E94290C86E890E00E94BD
:100AD0001B0CDF91CF9108950F931F93DF93CF935A
:100AE00000D000D000D0CDB7DEB7082F882309F49E
:100AF00056C08830D1F48091F203882309F44FC0A6
:100B00000E94B704E091F203E150E093F203F0E0B9
:100B1000E352FC4F1082098380E28A830B831C829C
:100B2000CE0101960E94290C3AC08D3029F48983A8
:100B30008AE08A831B8206C08A3019F089831A8270
:100B400001C019820E94B704CE0101960E94290CAF
:100B50000D3041F00B31A9F48DED93E069E071E0C7
:100B60000E940D150DED13E0C8010E94120585E1EC
:100B7000F80111928A95E9F71092F2030E949E04FF
:100B80000EC00A3061F08091F203843140F4E82F06
:100B9000F0E0E352FC4F00838F5F8093F2032696D0
:100BA0000FB6F894DEBF0FBECDBFCF91DF911F917E
:100BB0000F9108951092F5031092F4031092F70329
:100BC0001092F6031092F9031092F8031092FB03AF
:100BD0001092FA03E0E0F2E080E090E003C01192AE
:100BE0001192019680389105D0F31092FD03109276
:100BF000FC038FEF8093F3030895AC012091F3037E
:100C00002223A9F08091FC039091FD03FC01EE0FDB
:100C1000FF1FE050FE4F5183408301968F77907005
:100C20009093FD038093FC0321502093F3030895D8
:100C300080E48093F303089586EA90E00E941B0C01
:100C40008091F4039091F5036AEF0E947C0B0E945F
:100C5000140C80EA90E00E941B0C8091F6039091A6
:100C6000F7036AEF0E947C0B0E94140C8AE990E063
:100C70000E941B0C8091F8039091F9036AEF0E9487
:100C80007C0B0E94140C84E990E00E941B0C809164
:100C9000FA039091FB036AEF0E947C0B0E94140CF4
:100CA00008958CEA90E00E941B0C0E941C060E9492
:100CB000B70408958FEC90E00E941B0C8AEC90E042
:100CC0000E941B0C89EB90E00E941B0C80E00E94AC
:100CD000620B80E80E94620B84EB90E00E941B0C88
:100CE00080E092E060E870E00E94CB060E9451062E
:100CF00008950F931F93082F892F162F115010233B
:100D000079F00E94620B802F0E94620B8AED90E0C6
:100D10000E941B0C86ED90E00E941B0C1150D1F735
:100D20001F910F910895EF92FF920F931F93CF930E
:100D3000DF93EC018B0160E10E94790620C07E0107
:100D4000CE018F709070892B61F40E94140C8D2F4E
:100D50000E94620B8C2F0E94620B83ED90E00E9438
:100D60001B0CF999FECF2196F2BCE1BCF89A80B534
:100D70000E94620B80E20E943C0B01501040011562
:100D80001105E9F60E94140CDF91CF911F910F918C
:100D9000FF90EF9008950F931F93CF93DF93EC0193
:100DA0008B0160E10E94790619C0CE018F709070AE
:100DB000892B61F40E94140C8D2F0E94620B8C2FE2
:100DC0000E94620B8DED90E00E941B0C89910E94A5
:100DD000620B80E20E943C0B01501040011511058E
:100DE00021F70E94140CDF91CF911F910F9108956C
:100DF0009C01F999FECF32BD21BDF89A80B50895C6
:100E00009C01F999FECF1FBA32BD21BD60BD0FB65E
:100E1000F894FA9AF99A0FBE089580E090E06EEF88
:100E200073E04DE850E020E037E00E94301508956F
:100E30008EEF93E060E070E04DE850E028EF36E0A0
:100E40000E94141508950E94B704089587E092E067
:100E50000E941B0C82E092E00E941B0C80EE90E04E
:100E60000E941B0C0E94B7040895EDE6F0E080811B
:100E700080628083EBE6F0E0808182608083559819
:100E80005D9A2198299A10928D0410928E0489B14E
:100E900090E055E0969587955A95E1F721E030E08E
:100EA00082279327817080938F0483B190E0969579
:100EB00087958227932781708093900410928B04EA
:100EC00010928C04089560918F0489B1262F30E030
:100ED00090E0F5E096958795FA95E1F741E050E0CE
:100EE00084279527817090702817390781F083E057
:100EF00080938B0489B190E0E5E096958795EA951B
:100F0000E1F784279527817080938F040CC080912E
:100F10008B04882341F0815080938B04882319F43B
:100F2000862F0E948E126091900483B1262F30E0AC
:100F300090E09695879541E050E084279527817051
:100F400090702817390769F083E080938C0483B18F
:100F500090E09695879584279527817080939004DB
:100F6000089580918C04882341F0815080938C04F3
:100F7000882319F4862F0E94581208958FE092E07A
:100F80000E941B0C8BE092E00E941B0C81E080937E
:100F900074030895CF93DF93EC0188818823A9F02F
:100FA000833299F0CE010E94880F882371F4CE011C
:100FB0000E94C412882349F4CE0160E073E00E94CD
:100FC000D604882319F00E94BE0781E0DF91CF91FB
:100FD00008950F931F938C016AE070E00E947315CF
:100FE000CB0163E00E947C0B8EE20E943C0BC801A7
:100FF0006AE070E00E947315805D0E943C0B1F91B7
:101000000F9108959091DD0480918F03891789F0E5
:1010100090938F0386E992E00E941B0C80918F03CE
:10102000882319F081E992E002C08CE892E00E94E6
:101030001B0C9091DE0480919003891789F09093A6
:10104000900384E892E00E941B0C80919003882317
:1010500019F080E892E002C08CE792E00E941B0C3D
:101060002091C3043091C40480917503909176035C
:101070008217930779F0309376032093750385E701
:1010800092E00E941B0C809175039091760365E0BD
:101090000E947C0B2091D1043091D2048091830373
:1010A000909184038217930779F0309384032093FF
:1010B00083038DE692E00E941B0C80918303909144
:1010C000840365E00E947C0B2091C5043091C60426
:1010D00080917703909178038217930771F0309392
:1010E00078032093770386E692E00E941B0C8091A0
:1010F0007703909178030E94E9072091D3043091FF
:10110000D40480918503909186038217930771F030
:1011100030938603209385038EE592E00E941B0C9A
:1011200080918503909186030E94E9079091CA04FB
:1011300080917C038917B1F090937C0386E592E05F
:101140000E941B0C80917C03883C21F483E592E093
:101150000E941B0C80917C03893C21F480E592E085
:101160000E941B0C9091C704809179038917B1F0FC
:101170009093790389E492E00E941B0C809179039B
:10118000843621F483E492E00E941B0C8091790361
:10119000853621F48DE392E00E941B0C2091C80457
:1011A0003091C90480917A0390917B038217930751
:1011B00079F030937B0320937A0386E392E00E94D8
:1011C0001B0C80917A0390917B0365E00E947C0B5D
:1011D0002091D7043091D8048091890390918A039B
:1011E0008217930771F030938A03209389038FE26B
:1011F00092E00E941B0C8091890390918A030E94C7
:10120000E9072091D9043091DA0480918B03909101
:101210008C038217930771F030938C0320938B0318
:1012200088E292E00E941B0C80918B0390918C03CA
:101230000E94E9072091DB043091DC0480918D034A
:1012400090918E038217930779F030938E03209349
:101250008D038FE192E00E941B0C80918D03909191
:101260008E0363E00E947C0B87E192E00E941B0CDE
:101270000E941C0680917403882311F00E949E0432
:10128000109274030E94B70408958BE793E00E94C4
:101290001B0C86E793E00E941B0C8EE992E00E94F3
:1012A0001B0C81E080937403A3ECB4E0E5E7F3E06A
:1012B00003C08D918095819383E0E338F807C9F7E7
:1012C000A1EDB4E0E3E8F3E003C08D918095819354
:1012D00083E0E139F807C9F70E9402080895909366
:1012E0009204809391040895CF92DF92FF920F931E
:1012F0001F93CF93DF938AE0E3E9F4E0DF011D92CF
:101300008A95E9F705C02196D0939204C093910481
:10131000C0919104D09192046881662389F083E0A2
:1013200093E070E00E940215009769F709C0F80188
:10133000F1928F012196D0939204C093910403C03F
:1013400003E914E06801C0919104D0919204F880FF
:10135000FF2089F083E093E06F2D70E00E9402157A
:10136000009749F4F60101900020E9F73197E3591D
:10137000F4403A97E0F283E994E0DF91CF911F9136
:101380000F91FF90DF90CF900895EF92FF920F930F
:101390001F93CF93DF9380916F008F7D80936F00B9
:1013A0002091A1043091A2046091A5047091A6043B
:1013B000C091A304D091A4041092A2041092A1049D
:1013C0001092A6041092A5041092A4041092A304F3
:1013D00080916F00806280936F002115310549F480
:1013E0001092A8041092A7041092AA041092A904C3
:1013F00024C0790100E010E080E090E028EE33E0C6
:1014000040E050E00E945415A80197010E94871502
:101410003093A8042093A704BE0180E090E020E070
:1014200034E244EF50E00E945415A80197010E9455
:1014300087153093AA042093A904DF91CF911F91BF
:101440000F91FF90EF9008958091A7049091A804C8
:1014500008958091A9049091AA04089578941F9208
:101460000F920FB60F9211242F933F934F935F93D8
:101470006F937F938F939F938091AB048150809360
:10148000AB0418160CF459C08091810086FD0EC083
:10149000809186009091870090939E0480939D0494
:1014A0001092AC0480918100806445C08091AC04AE
:1014B000882361F480918600909187009093A00426
:1014C00080939F0481E08093AC0437C040918600F4
:1014D0005091870060919F047091A004461B570BA8
:1014E0008091A1049091A204840F951F9093A2046F
:1014F0008093A10480919D0490919E042091A50465
:101500003091A604820F931F840F951F861B970BA3
:101510009093A6048093A5048091A3049091A404C1
:1015200001969093A4048093A3048AE08093AB0473
:10153000809181008F7B809381009F918F917F911B
:101540006F915F914F913F912F910F900FBE0F9030
:101550001F90189580E1EDE9F4E0DF011D928A9576
:10156000E9F78AE08093AB04E4E6F0E08081877FCE
:1015700080831092800081E080938100109285002A
:1015800010928400EFE6F0E080818062808308950D
:101590000F931F938C0186E093E00E948D04812FAE
:1015A0000E943C0B802F0E943C0B1F910F910895CD
:1015B0000E94CF0D9B01AC018091AD049091AE04CF
:1015C000A091AF04B091B004281739074A075B0710
:1015D00040F12F5F3F4F4F4F5F4F2093AD0430934B
:1015E000AE044093AF045093B0048091B104909145
:1015F000B20428E48534920761F02DE48134920727
:1016000029F024E48534920751F406C00E940208B0
:1016100008950E94230708950E94510608950E948C
:10162000C80A08959093B2048093B10428E48534E5
:10163000920761F02DE48134920729F024E4853487
:10164000920751F406C00E94450908950E9426079A
:1016500008950E945A0608950E94C80A089510929B
:10166000AD041092AE041092AF041092B00481E465
:101670009DE40E94120B08951F93182F812F0E9442
:10168000D9038823D9F31F9108950F931F93CF9304
:10169000DF93182FC0E0D0E001E3812F8095881FF1
:1016A0008827881F902F981B892F0E943C0B21961A
:1016B000C830D10511F0110FF0CFDF91CF911F91FC
:1016C0000F9108951F93CF93DF93182F82958F70FA
:1016D000CFE7D3E0FE01E80FF11DE4918E2F0E94C9
:1016E0003C0B1F70C10FD11DFE0184910E943C0B69
:1016F000DF91CF911F9108955F926F927F928F92A9
:101700009F92AF92BF92CF92DF92EF92FF920F9390
:101710001F93CF93DF933C01162F65361CF460E2D4
:10172000562E03C0145650E3552E4FE8A42E43E026
:10173000B42E00E035E0E32EF12CF5018591949173
:1017400020E3922E03C0681A790A939468167906EA
:10175000D0F780E3981619F4002309F526C000237A
:10176000F1F41116E4F4812F992787FD90958E15D9
:101770009F050CF41E2DC0E0D0E0C12EDD24C7FC77
:10178000D09404C0852D0E943C0B2196812E8C1A8A
:10179000C6018C1B9D0BE816F906A4F301C0812E2F
:1017A000892D0E943C0B0F5F182D82E090E0A80E5F
:1017B000B91E0894E108F10891E0E916F10409F076
:1017C000BCCF002341F4111624F005C0852D0E94E2
:1017D0003C0B1150D9F7862D805D0E943C0B17FF02
:1017E00013C004C0852D0E943C0B08C0812F99278F
:1017F00087FD9095CC27DD27C81BD90B0F5F802F65
:1018000090E08C179D0774F3DF91CF911F910F919A
:10181000FF90EF90DF90CF90BF90AF909F908F9010
:101820007F906F905F9008958DE00E943C0B8AE05E
:101830000E943C0B0895CF93DF93EC0102C00E94FD
:101840003C0BFE01219684918823C9F7DF91CF914B
:101850000895CF93DF93EC0103C021960E943C0BC7
:1018600088818823D1F7DF91CF910895EF92FF927D
:101870000F931F93CF93DF937B018C01C0E0D0E0E7
:1018800007FD02C080E301C081E30E943C0B21966A
:10189000C032D10529F0EE0CFF1C001F111FF0CF44
:1018A000DF91CF911F910F91FF90EF900895EF92EC
:1018B000FF920F931F93CF93DF937B018C01DC0189
:1018C000CB01ECE1B695A79597958795EA95D1F769
:1018D000C7E9D3E0FE01E80FF91FE4918E2F0E94C3
:1018E0003C0B812F9927AA27BB27FC01EF70F070D2
:1018F000EC0FFD1F84910E943C0BD801C70164E1ED
:10190000B695A795979587956A95D1F7FC01EF70E5
:10191000F070EC0FFD1F84910E943C0BC801AA27B8
:10192000BB27FC01EF70F070EC0FFD1F84910E944B
:101930003C0BD801C7014CE0B695A79597958795C4
:101940004A95D1F7FC01EF70F070EC0FFD1F849108
:101950000E943C0BBB27A12F902F8F2DFC01EF7015
:10196000F070EC0FFD1F84910E943C0BD801C70161
:1019700024E0B695A795979587952A95D1F7FC0110
:10198000EF70F070EC0FFD1F84910E943C0B8FE014
:10199000E822FF24CE0DDF1DFE0184910E943C0B46
:1019A000DF91CF911F910F91FF90EF9008952F92AB
:1019B0003F924F925F926F927F928F929F92AF92DF
:1019C000BF92CF92DF92EF92FF920F931F93CF932C
:1019D000DF936B017C01142F45361CF480E2282E26
:1019E00003C0145600E3202EB7EA6B2EB3E07B2E23
:1019F00000E0A5E03A2EF30185919591A591B4916F
:101A0000F0E35F2E05C0C81AD90AEA0AFB0A53940C
:101A1000C816D906EA06FB06B0F780E3581619F493
:101A2000002319F528C0002301F51116F4F4832CC6
:101A30009924812F992787FD9095881599050CF495
:101A4000132DC0E0D0E0A12EBB24A7FCB09404C0AD
:101A5000822D0E943C0B2196412E4C1AC5018C1BF5
:101A60009D0B88169906A4F301C0412E852D0E9476
:101A70003C0B0F5F142D84E090E0680E791E3A94C1
:101A80009CEF391609F0B7CF002341F4111624F06A
:101A900005C0822D0E943C0B1150D9F78C2D805D22
:101AA0000E943C0B17FF13C004C0822D0E943C0B08
:101AB00008C0812F992787FD9095CC27DD27C81B6B
:101AC000D90B0F5F802F90E08C179D0774F3DF9187
:101AD000CF911F910F91FF90EF90DF90CF90BF902B
:101AE000AF909F908F907F906F905F904F903F90BE
:101AF0002F9008950E94DA050E946E040E94100E35
:101B000078940E94F6110E9413110E942F0B0E94DC
:101B1000AB0480E00E946E0F0BC088950E94F90311
:101B20008B3121F481E00E94561102C00E946C05A5
:101B30000E94A10D882389F30E9490110E94D80A67
:101B4000F7CF8091BB04882349F12091B7043091ED
:101B5000B804C90188969093B8048093B704885E4E
:101B60009340C8F0205C33403093B8042093B7040E
:101B70008091B3049091B404A091B504B091B604DF
:101B80000196A11DB11D8093B3049093B404A0935A
:101B9000B504B093B6041092BB0481E00895E0E769
:101BA000F0E080818D7F808380818260808360917E
:101BB000B3047091B4048091B5049091B604089573
:101BC000E0E7F0E080818D7F808380818260808388
:101BD0008091B7049091B804089578941F920F9261
:101BE0000FB60F9211248F939F938091B904909117
:101BF000BA0401979093BA048093B904892B49F4ED
:101C000085E090E09093BA048093B90481E08093DA
:101C1000BB049F918F910F900FBE0F901F9018954E
:101C200089E0E3EBF4E0DF011D928A95E9F7E4E651
:101C3000F0E080818F7B808382E08093B00087E03A
:101C40008093B1001092B2008CE78093B30085E0DE
:101C500090E09093BA048093B904E0E7F0E08081CB
:101C60008260808308950F931F93EAE7F0E08081FC
:101C700080836091BE047091BF040091C0041092F3
:101C8000BF041092BE041092C004208120838827D4
:101C900077FD8095982F24EF31E040E050E00E94DE
:101CA000541510E02FEF33E0A901049F9001059F28
:101CB000300D149F300D1124442737FD4095542FCB
:101CC0000E94A9158AEF90E0821B930B9093BD04AC
:101CD0008093BC041F910F9108958091BC04909152
:101CE000BD04089578941F920F920FB60F9211249D
:101CF0002F933F938F939F9380917A00806480937A
:101D00007A008091C10481508093C1048823B1F48A
:101D100080E18093C1048091C0048F5F8093C004F0
:101D200080917800909179002091BE043091BF0499
:101D3000820F931F9093BF048093BE049F918F9155
:101D40003F912F910F900FBE0F901F90189586E036
:101D5000ECEBF4E0DF011D928A95E9F780E18093D6
:101D6000C104E4E6F0E080818E7F808310927E00E3
:101D700010927B0080E480937C00EAE7F0E08FE83B
:101D800080838081806480830895FF920F931F93E6
:101D9000F82E8B010E94BE0785E695E00E941B0C81
:101DA0008F2D805D0E943C0B82E695E00E941B0C0B
:101DB000D801ED91FC91EE0FFF1FE151FF4F8081A3
:101DC00091810E941B0CF8018281882321F08AE511
:101DD00095E00E941B0C1F910F91FF9008951F9397
:101DE000CF93DF93182FEB010E94BE0787EB95E09E
:101DF0000E941B0C812F90E060E00E947C0B809180
:101E0000C204181721F48CEA95E00E941B0C88EAA2
:101E100095E00E941B0C81EA95E00E941B0C8881D2
:101E2000998165E00E947C0B8CE995E00E941B0C77
:101E30008A819B8163E00E947C0B83E995E00E948C
:101E40001B0C8AE895E00E941B0C8C81843629F4D7
:101E50008DE795E00E941B0C0BC086E795E00E9481
:101E60001B0C8D819E8165E00E947C0B0E94140CEE
:101E70008CE695E00E941B0CEF81F0E0EE0FFF1F57
:101E8000ED54FE4F808191810E941B0C289681E0C9
:101E9000BE010E94C50E239682E0BE010E94C50EBF
:101EA0000E94140CDF91CF911F910895282F30E0EC
:101EB000220F331FF90143E0EE0FFF1F4A95E1F7B0
:101EC000E21BF30BE150FC4FA3ECB4E08EE00D906D
:101ED00001928150E1F70E940D0708958093C2049A
:101EE000282F30E0220F331FF90163E0EE0FFF1FB0
:101EF0006A95E1F7E21BF30BA3ECB4E0E150FC4F71
:101F00008EE001900D928150E1F70E94ED1108954D
:101F1000CF92DF92EF92FF920F931F93CF93DF93B5
:101F2000EC016CE173E00E94D604882309F408C137
:101F30000E947409EC018881882381F40E94BE0705
:101F400085EB94E00E941B0CE091CA04F0E0EE0FD8
:101F5000FF1FED54FE4F80819181EFC0CE016FE1F4
:101F600073E00E94D604882351F00E94BE0786EADF
:101F700094E00E941B0C84E660E070E033C0CE0168
:101F800061E273E00E94D604882379F10E9474090B
:101F90008C010E94DB14EC01F8018081882311F090
:101FA000D7FF10C00E94BE0787E894E00E941B0C78
:101FB000C8010E94290C89E694E00E941B0C85E56B
:101FC00094E0BBC00E94BE078CE494E00E941B0C0E
:101FD000CE0160E00E947C0B84E494E00E941B0C24
:101FE00085E6BE010E94811114C1CE0164E273E056
:101FF0000E94D604882351F00E94BE078CE294E030
:102000000E941B0C88EC0E94881103C1CE0167E27C
:1020100073E00E94D604882341F4CE016AE273E0A3
:102020000E94D604882309F479C0C980F0EDCF0E50
:102030000E947409EC0181E0C81629F0BEECEB2E79
:10204000B4E0FB2E04C0ABECEA2EA4E0FA2E8881AB
:10205000882309F45EC0CE016DE273E00E94D604CD
:10206000D82ECE016FE273E00E94D604882329F0B7
:10207000DD24D3940DE211E002C00CE211E0CE01A8
:1020800062E373E00E94D604882321F0DD24D39418
:102090000EE211E0CE0165E373E00E94D6048823CE
:1020A00021F0DD24D3940FE211E00E94BE07DD2071
:1020B00071F480E495E00E941B0CCE010E94290C73
:1020C00081E295E00E941B0C8DE095E036C00E94F5
:1020D0007409EC0188818823B9F0CE0168E373E0CC
:1020E0000E94D604882311F081E00FC083EF94E0B2
:1020F0000E941B0CCE010E94290C88ED94E00E94E6
:102100001B0C84EC94E019C080E0F701118300837C
:1021100082838C2DB7010E94C50E7BC00E94BE0732
:102120008FE094E00E941B0CCE010E94290C8BE0F2
:1021300094E00E941B0C87EF93E00E941B0C69C087
:10214000CE016AE373E00E94D6048823D1F00E9496
:1021500074098C010E94DB14982FF8018081882378
:1021600011F49091C204892F0E946E0F0E94BE0745
:1021700089EE93E00E941B0C8091C20490E060E025
:1021800046C0CE016DE373E00E94D6048823F9F0C7
:102190000E9474098C010E94DB14382FF8018081A1
:1021A000882321F48FEF63EC74E00EC0832F880F37
:1021B000991FBC01E3E0660F771FEA95E1F7681B02
:1021C000790B61507C4F832F0E94EF0E22C0CE010D
:1021D00060E473E00E94D6048823E1F00E94740951
:1021E0008C010E94DB14F82EF8018081882311F401
:1021F000F090C2048F2D0E94560F0E94BE0789EDF9
:1022000093E00E941B0C8091C20490E06F2D0E940D
:102210007C0B81E0DF91CF911F910F91FF90EF90A8
:10222000DF90CF9008951F930E9418078091FE03BE
:102230008730E9F01092C2041EE010C0819FC001F7
:10224000112481509C4F6BEC73E04EE050E00E94F3
:10225000F9148091C2048F5F8093C2048091C204FC
:102260008A3060F387E08093FE030E940D0780E0D0
:102270000E946E0F1F9108953A9A42983B9A439894
:102280000895882311F0429A08954298089588236A
:1022900011F0439A089543980895569A5E980895C8
:1022A000882311F05E9A08955E9808958093DD0466
:1022B000882339F01092D6041092D5041092DE04CF
:1022C0005F9A0895882341F41092D6041092D504A1
:1022D0001092DE045F9A08958091DD04882381F4D2
:1022E0008091C704853641F48091C8049091C90457
:1022F0009093D6048093D50481E08093DE045F98A8
:1023000008958093C7047093C9046093C804089526
:102310008093CA0408959093C6048093C5040895D9
:102320000E94C5090E94330E0E9463070E94290A79
:102330009093D2048093D1040E94240A880F991F9D
:102340009093DA048093D9040E946D0E9C019093BF
:10235000D8048093D704BC01660F771F620F731FE8
:10236000660F771F660F771F80E090E02091D904F9
:102370003091DA0440E050E00E94541528EE33E03A
:1023800040E050E00E9487153093D4042093D3049A
:102390008091DE048823B1F08091C704853691F4E2
:1023A0008091D5049091D60401979093D6048093A0
:1023B000D504892B39F41092D6041092D5041092CA
:1023C000DE045F9A0895BC019093C4048093C30413
:1023D0008EE291E00E941C1408956091C3047091F4
:1023E000C4048EE291E00E941C1408958091640060
:1023F0008B7F80936400239A2498259A229A2A98A6
:1024000080E58CBD81E08DBD8EB55F9A579A0E94A4
:10241000CB140E94A70E5A9A529A5A9880E48EBD05
:102420000DB407FEFDCF8FE08EBD0DB407FEFDCFCE
:102430005A9A5A981EBC0DB407FEFDCF80E88EBD97
:102440000DB407FEFDCF5A9A0E94AA0A0E943507D2
:102450000E943C1183EC94E066E176E04EE050E0AF
:102460000E94F9148EE0E1EDF4E0DF011D928A95FF
:10247000E9F70E94ED115F9A81E08093DD041092EC
:10248000D6041092D5041092DE045F9A8EE190E09B
:102490009093DC048093DB045A981EBC0DB407FEB5
:1024A000FDCF8EE18EBD0DB407FEFDCF5A9A089583
:1024B0001F93182F8091CD04882379F00E94BE07C6
:1024C0008FE296E00E941B0C112319F08AE296E03D
:1024D00002C084E296E00E941B0C8091CE04909191
:1024E000CF0421E08E32920749F021E08F3292072B
:1024F00071F08D52914081F4812F06C0112361F05B
:102500008091DE0491E089270E94621105C01123A9
:1025100019F081E00E9456111F9108951F93182F02
:102520008091CD04882379F00E94BE0782E496E072
:102530000E941B0C112319F08DE396E002C087E383
:1025400096E00E941B0C8091CB049091CC0421E07A
:102550008E32920749F021E08F32920771F08D524E
:10256000914081F4812F06C0112361F08091DE0437
:1025700091E089270E94621105C0112319F081E0C2
:102580000E9456111F910895CF93DF93EC016FE4E1
:1025900073E00E94D604882339F4CE0162E573E02B
:1025A0000E94D604882341F080E00E9462110E94BC
:1025B000BE0784E697E012C0CE0166E573E00E9494
:1025C000D604882399F081E00E9462118091DD0495
:1025D000882339F00E94BE0787E497E00E941B0C15
:1025E00027C10E94BE0789E397E0F8CFCE0169E5D5
:1025F00073E00E94D604882341F081E00E945611C6
:102600000E94BE0789E297E0E9CFCE016CE573E056
:102610000E94D604882341F080E00E9456110E9457
:10262000BE0788E197E0DACFCE016FE573E00E9444
:10263000D6048823E1F10E947409EC018881882383
:1026400071F40E94BE0781E197E00E941B0C80910B
:10265000C3049091C40460E00E947C0BE9C0CE01E9
:102660000E94DB142EE4803292070CF0A4C00E947A
:10267000BE0781EF96E00E941B0CCE010E94290C40
:1026800085EE96E00E941B0C80E29EE460E00E94D2
:102690007C0B80EE96E00E941B0C88EB98E860E0D3
:1026A0000E947C0B0E94140C8CEC96E097CFCE011C
:1026B00062E673E00E94D604882361F10E947409E7
:1026C000EC010E94DB149C0183E0293E380700F1F5
:1026D0000E94BE0780EB96E00E941B0CCE010E9478
:1026E000290C84EA96E00E941B0C80E090E060E0F8
:1026F0000E947C0B8FE996E00E941B0C88EE93E011
:1027000060E00E947C0B0E94140C8BE896E066CF80
:10271000C90119C0CE0165E673E00E94D604882382
:1027200031F08091C5049091C6040A960CC0CE0188
:1027300067E673E00E94D604882341F08091C504C7
:102740009091C6040A970E948B1172C0CE0169E66F
:1027500073E00E94D604882339F08091C3049091DD
:10276000C4048C599F4F27C0CE016BE673E00E94D2
:10277000D604882339F08091C3049091C404845610
:10278000904019C0CE016DE673E00E94D604882304
:1027900031F08091C3049091C40444960CC0CE01E2
:1027A0006FE673E00E94D604882341F08091C30451
:1027B0009091C40444970E94E3113AC0CE0161E7AE
:1027C00073E00E94D6048823A1F10E947409EC01F1
:1027D0000E94DB149C018F3F9105E1F0D8F00E942C
:1027E000BE078FE696E00E941B0CCE010E94290CCA
:1027F0008EE596E00E941B0C8FEF90E060E00E9457
:102800007C0B0E94140C8AE496E00E941B0C0E9430
:10281000140C0EC05A981EBC0DB407FEFDCF3093A9
:10282000DC042093DB042EBD0DB407FEFDCF5A9AC5
:1028300081E0DF91CF9108951F93CF93DF93EC0157
:102840001CB58CB588608CBD8CB58B7F8CBD5C98BD
:1028500081E28EBD0DB407FEFDCF1EBC0DB407FE98
:10286000FDCF5C9A81E0CC32D80721F41CBD1092D8
:10287000E10485C07093E0046093DF0481E08093FD
:10288000E10480E090E02EE0660F771F881F991F1B
:102890002A95D1F721E732E040E050E00E94871509
:1028A000542F432F322F2227CA01B90121E732E0EA
:1028B00040E050E00E948715C901DA01A9015F7369
:1028C00050649D01220F331F220F331F3064892F64
:1028D000829586958695837090E0282B392B822FE0
:1028E000232F5C985EBD0DB407FEFDCF4EBD0DB429
:1028F00007FEFDCF5C9A5C982EBD0DB407FEFDCFA0
:102900008EBD0DB407FEFDCF5C9A5C9880EC8EBD49
:102910000DB407FEFDCF1EBC0DB407FEFDCF5C9AC3
:1029200081E0CD32D80759F45C9880E28EBD0DB4B9
:1029300007FEFDCF1EBC0DB407FEFDCF1EC081E01B
:10294000CE32D80761F45C9880E28EBD0DB407FEEC
:10295000FDCF88E28EBD0DB407FEFDCF0EC0CF5275
:10296000D14061F45C9880E28EBD0DB407FEFDCFCE
:1029700082E08EBD0DB407FEFDCF5C9A1CBDDF91D9
:10298000CF911F9108958091E10408958091DF0413
:102990009091E004089583E0EFEDF4E0DF011D92F3
:1029A0008A95E9F7549A5C9A8CE291E060E070E0D5
:1029B0000E941C140895FC0188279927E89421910E
:1029C0002032E9F3293010F02E30C8F32B3241F0D9
:1029D0002D3239F4689404C00E944C15820F911D69
:1029E000219120532A30C0F31EF4909581959F4F7A
:1029F0000895FB01DC0102C005900D92415050404A
:102A0000D8F70895FC018191861721F08823D9F722
:102A1000992708953197CF010895FB01DC010190BA
:102A20000D920020E1F70895A0E0B0E0EAE1F5E1C1
:102A30000C94E2157C01EB018A01690109C0CE0109
:102A40002196F6010995F70181937F01015010400D
:102A500001151105A1F7CDB7DEB7E8E00C94FE151E
:102A6000A0E0B0E0E6E3F5E10C94E215EC017B01B7
:102A70008A01690109C0CE012196F70161917F01A8
:102A8000F60109950150104001151105A1F7CDB7C8
:102A9000DEB7E8E00C94FE157AE0979F902D879FB3
:102AA000802D910D11240895629FD001739FF00134
:102AB000829FE00DF11D649FE00DF11D929FF00DCE
:102AC000839FF00D749FF00D659FF00D9927729F05
:102AD000B00DE11DF91F639FB00DE11DF91FBD0190
:102AE000CF0111240895AA1BBB1B51E107C0AA1FE7
:102AF000BB1FA617B70710F0A61BB70B881F991F9F
:102B00005A95A9F780959095BC01CD010895A1E251
:102B10001A2EAA1BBB1BFD010DC0AA1FBB1FEE1F57
:102B2000FF1FA217B307E407F50720F0A21BB30BA2
:102B3000E40BF50B661F771F881F991F1A9469F71E
:102B400060957095809590959B01AC01BD01CF017A
:102B5000089597FB092E05260ED057FD04D0D7DF28
:102B60000AD0001C38F450954095309521953F4F80
:102B70004F4F5F4F0895F6F790958095709561954A
:102B80007F4F8F4F9F4F089585FD0FC08062911139
:102B90000CC081568A51E0F708959111089581562D
:102BA0008A5108F4805285580895992788270895F6
:102BB0002F923F924F925F926F927F928F929F924D
:102BC000AF92BF92CF92DF92EF92FF920F931F933B
:102BD000CF93DF93CDB7DEB7CA1BDB0B0FB6F894EC
:102BE000DEBF0FBECDBF09942A88398848885F842C
:102BF0006E847D848C849B84AA84B984C884DF809D
:102C0000EE80FD800C811B81AA81B981CE0FD11D80
:102C10000FB6F894DEBF0FBECDBFED010895F89456
:022C2000FFCFE4
:102C2200436D643E20004D41001B004845003F00BB
:102C3200444500556E7265636F676E697A656420FC
:102C4200636F6D6D616E64202800290D0A0000001B
:102C52000000000000000000000000000000000072
:102C62000000000000000000000000000000000062
:102C72000000000000000000000000000000000052
:102C82000000000000000000000000000000000042
:102C92000000000000000000000000000000000032
:102CA2000000000000000000000000000000000022
:102CB2000000000000000000000000000000000012
:102CC2000000000000000000000000000000000002
:102CD20000000000000000000000000000000000F2
:102CE20000000000000000000000000000000000E2
:102CF20000000000000000000000000000000000D2
:102D020000000000000000000000000000000000C1
:102D120000000000000000000000000000000000B1
:102D22008000000000000000000000000000000021
:102D32000000000000000000000000000000000091
:102D42000000000000000000000000000000000081
:102D52000000000000000000000000000000000071
:102D62000000000000000000000000000000000061
:102D72000000000000000000000000000000000051
:102D82000000000000000000000000000000000041
:102D92000000000000000000000000000000000031
:102DA2000000000000000000000000000000000021
:102DB2000000000000000000000000000000000011
:102DC2000000000000000000000000000000000001
:102DD20000000000000000000000000000000000F1
:102DE20000000000000000000000000000000000E1
:102DF20000000000000000000000000000000000D1
:102E020000000000000000000000000000000000C0
:102E120000000000000000000000000000000000B0
:102E2200434C002009004261642073637265656E41
:102E32002073656C65637465642028004D4F0052F1
:102E420000525400434600493100493200550058AF
:102E52004300504F0045530050004C530050530064
:102E6200535300BE05CC05DB05E205F40510064F01
:102E720046004F4646004F4E00455300524500461D
:102E82005200504F004C005300550044002B002DBF
:042E92000050570095
:00000001FF
